{
	"contracts/ScoreCard.sol": {
		"ScoreCard": {
			"abi": [
				{
					"inputs": [],
					"stateMutability": "nonpayable",
					"type": "constructor"
				},
				{
					"inputs": [
						{
							"internalType": "string",
							"name": "_studentFirstName",
							"type": "string"
						},
						{
							"internalType": "string",
							"name": "_studentLastName",
							"type": "string"
						}
					],
					"name": "addStudentDetails",
					"outputs": [],
					"stateMutability": "nonpayable",
					"type": "function"
				},
				{
					"inputs": [
						{
							"internalType": "uint256",
							"name": "_studentId",
							"type": "uint256"
						},
						{
							"internalType": "uint256",
							"name": "_englishMarks",
							"type": "uint256"
						},
						{
							"internalType": "uint256",
							"name": "_mathsMarks",
							"type": "uint256"
						},
						{
							"internalType": "uint256",
							"name": "_scienceMarks",
							"type": "uint256"
						}
					],
					"name": "addStudentScore",
					"outputs": [],
					"stateMutability": "nonpayable",
					"type": "function"
				},
				{
					"inputs": [],
					"name": "classTeacher",
					"outputs": [
						{
							"internalType": "address",
							"name": "",
							"type": "address"
						}
					],
					"stateMutability": "view",
					"type": "function"
				}
			],
			"devdoc": {
				"kind": "dev",
				"methods": {},
				"version": 1
			},
			"evm": {
				"assembly": "    /* \"contracts/ScoreCard.sol\":72:1308  contract ScoreCard {... */\n  mstore(0x40, 0x80)\n    /* \"contracts/ScoreCard.sol\":119:120  0 */\n  0x00\n    /* \"contracts/ScoreCard.sol\":98:120  uint256 studentCount=0 */\n  dup1\n  sstore\n    /* \"contracts/ScoreCard.sol\":160:215  constructor(){... */\n  callvalue\n  dup1\n  iszero\n  tag_1\n  jumpi\n  0x00\n  dup1\n  revert\ntag_1:\n  pop\n    /* \"contracts/ScoreCard.sol\":198:208  msg.sender */\n  caller\n    /* \"contracts/ScoreCard.sol\":183:195  classTeacher */\n  0x01\n  0x00\n    /* \"contracts/ScoreCard.sol\":183:208  classTeacher = msg.sender */\n  0x0100\n  exp\n  dup2\n  sload\n  dup2\n  0xffffffffffffffffffffffffffffffffffffffff\n  mul\n  not\n  and\n  swap1\n  dup4\n  0xffffffffffffffffffffffffffffffffffffffff\n  and\n  mul\n  or\n  swap1\n  sstore\n  pop\n    /* \"contracts/ScoreCard.sol\":72:1308  contract ScoreCard {... */\n  dataSize(sub_0)\n  dup1\n  dataOffset(sub_0)\n  0x00\n  codecopy\n  0x00\n  return\nstop\n\nsub_0: assembly {\n        /* \"contracts/ScoreCard.sol\":72:1308  contract ScoreCard {... */\n      mstore(0x40, 0x80)\n      callvalue\n      dup1\n      iszero\n      tag_1\n      jumpi\n      0x00\n      dup1\n      revert\n    tag_1:\n      pop\n      jumpi(tag_2, lt(calldatasize, 0x04))\n      shr(0xe0, calldataload(0x00))\n      dup1\n      0x3c81bde7\n      eq\n      tag_3\n      jumpi\n      dup1\n      0xa24232c5\n      eq\n      tag_4\n      jumpi\n      dup1\n      0xbe645d0a\n      eq\n      tag_5\n      jumpi\n    tag_2:\n      0x00\n      dup1\n      revert\n        /* \"contracts/ScoreCard.sol\":934:1305  function addStudentScore(uint256 _studentId, uint256 _englishMarks,uint256 _mathsMarks,uint256 _scienceMarks) public {... */\n    tag_3:\n      tag_6\n      0x04\n      dup1\n      calldatasize\n      sub\n      dup2\n      add\n      swap1\n      tag_7\n      swap2\n      swap1\n      tag_8\n      jump\t// in\n    tag_7:\n      tag_9\n      jump\t// in\n    tag_6:\n      stop\n        /* \"contracts/ScoreCard.sol\":564:928  function addStudentDetails(string memory _studentFirstName, string memory _studentLastName) public... */\n    tag_4:\n      tag_10\n      0x04\n      dup1\n      calldatasize\n      sub\n      dup2\n      add\n      swap1\n      tag_11\n      swap2\n      swap1\n      tag_12\n      jump\t// in\n    tag_11:\n      tag_13\n      jump\t// in\n    tag_10:\n      stop\n        /* \"contracts/ScoreCard.sol\":126:153  address public classTeacher */\n    tag_5:\n      tag_14\n      tag_15\n      jump\t// in\n    tag_14:\n      mload(0x40)\n      tag_16\n      swap2\n      swap1\n      tag_17\n      jump\t// in\n    tag_16:\n      mload(0x40)\n      dup1\n      swap2\n      sub\n      swap1\n      return\n        /* \"contracts/ScoreCard.sol\":934:1305  function addStudentScore(uint256 _studentId, uint256 _englishMarks,uint256 _mathsMarks,uint256 _scienceMarks) public {... */\n    tag_9:\n        /* \"contracts/ScoreCard.sol\":1062:1087  Score storage scoreObject */\n      0x00\n        /* \"contracts/ScoreCard.sol\":1091:1097  scores */\n      0x03\n        /* \"contracts/ScoreCard.sol\":1091:1109  scores[_studentId] */\n      0x00\n        /* \"contracts/ScoreCard.sol\":1098:1108  _studentId */\n      dup7\n        /* \"contracts/ScoreCard.sol\":1091:1109  scores[_studentId] */\n      dup2\n      mstore\n      0x20\n      add\n      swap1\n      dup2\n      mstore\n      0x20\n      add\n      0x00\n      keccak256\n        /* \"contracts/ScoreCard.sol\":1062:1109  Score storage scoreObject  = scores[_studentId] */\n      swap1\n      pop\n        /* \"contracts/ScoreCard.sol\":1146:1159  _englishMarks */\n      dup4\n        /* \"contracts/ScoreCard.sol\":1120:1131  scoreObject */\n      dup2\n        /* \"contracts/ScoreCard.sol\":1120:1144  scoreObject.englishMarks */\n      0x01\n      add\n        /* \"contracts/ScoreCard.sol\":1120:1159  scoreObject.englishMarks =_englishMarks */\n      dup2\n      swap1\n      sstore\n      pop\n        /* \"contracts/ScoreCard.sol\":1196:1209  _scienceMarks */\n      dup2\n        /* \"contracts/ScoreCard.sol\":1169:1180  scoreObject */\n      dup2\n        /* \"contracts/ScoreCard.sol\":1169:1193  scoreObject.scienceMarks */\n      0x03\n      add\n        /* \"contracts/ScoreCard.sol\":1169:1209  scoreObject.scienceMarks = _scienceMarks */\n      dup2\n      swap1\n      sstore\n      pop\n        /* \"contracts/ScoreCard.sol\":1244:1255  _mathsMarks */\n      dup3\n        /* \"contracts/ScoreCard.sol\":1219:1230  scoreObject */\n      dup2\n        /* \"contracts/ScoreCard.sol\":1219:1241  scoreObject.mathsMarks */\n      0x02\n      add\n        /* \"contracts/ScoreCard.sol\":1219:1255  scoreObject.mathsMarks = _mathsMarks */\n      dup2\n      swap1\n      sstore\n      pop\n        /* \"contracts/ScoreCard.sol\":1288:1298  _studentId */\n      dup5\n        /* \"contracts/ScoreCard.sol\":1265:1276  scoreObject */\n      dup2\n        /* \"contracts/ScoreCard.sol\":1265:1286  scoreObject.studentId */\n      0x00\n      add\n        /* \"contracts/ScoreCard.sol\":1265:1298  scoreObject.studentId =_studentId */\n      dup2\n      swap1\n      sstore\n      pop\n        /* \"contracts/ScoreCard.sol\":1051:1305  {... */\n      pop\n        /* \"contracts/ScoreCard.sol\":934:1305  function addStudentScore(uint256 _studentId, uint256 _englishMarks,uint256 _mathsMarks,uint256 _scienceMarks) public {... */\n      pop\n      pop\n      pop\n      pop\n      jump\t// out\n        /* \"contracts/ScoreCard.sol\":564:928  function addStudentDetails(string memory _studentFirstName, string memory _studentLastName) public... */\n    tag_13:\n        /* \"contracts/ScoreCard.sol\":677:713  StudentDetails storage studentObject */\n      0x00\n        /* \"contracts/ScoreCard.sol\":716:724  students */\n      0x02\n        /* \"contracts/ScoreCard.sol\":716:738  students[studentCount] */\n      0x00\n        /* \"contracts/ScoreCard.sol\":725:737  studentCount */\n      dup1\n      sload\n        /* \"contracts/ScoreCard.sol\":716:738  students[studentCount] */\n      dup2\n      mstore\n      0x20\n      add\n      swap1\n      dup2\n      mstore\n      0x20\n      add\n      0x00\n      keccak256\n        /* \"contracts/ScoreCard.sol\":677:738  StudentDetails storage studentObject = students[studentCount] */\n      swap1\n      pop\n        /* \"contracts/ScoreCard.sol\":781:798  _studentFirstName */\n      dup3\n        /* \"contracts/ScoreCard.sol\":748:761  studentObject */\n      dup2\n        /* \"contracts/ScoreCard.sol\":748:778  studentObject.studentFirstName */\n      0x00\n      add\n        /* \"contracts/ScoreCard.sol\":748:798  studentObject.studentFirstName = _studentFirstName */\n      swap1\n      dup1\n      mload\n      swap1\n      0x20\n      add\n      swap1\n      tag_20\n      swap3\n      swap2\n      swap1\n      tag_21\n      jump\t// in\n    tag_20:\n      pop\n        /* \"contracts/ScoreCard.sol\":840:856  _studentLastName */\n      dup2\n        /* \"contracts/ScoreCard.sol\":808:821  studentObject */\n      dup2\n        /* \"contracts/ScoreCard.sol\":808:837  studentObject.studentLastName */\n      0x01\n      add\n        /* \"contracts/ScoreCard.sol\":808:856  studentObject.studentLastName = _studentLastName */\n      swap1\n      dup1\n      mload\n      swap1\n      0x20\n      add\n      swap1\n      tag_22\n      swap3\n      swap2\n      swap1\n      tag_21\n      jump\t// in\n    tag_22:\n      pop\n        /* \"contracts/ScoreCard.sol\":885:897  studentCount */\n      sload(0x00)\n        /* \"contracts/ScoreCard.sol\":866:879  studentObject */\n      dup2\n        /* \"contracts/ScoreCard.sol\":866:882  studentObject.id */\n      0x02\n      add\n        /* \"contracts/ScoreCard.sol\":866:897  studentObject.id = studentCount */\n      dup2\n      swap1\n      sstore\n      pop\n        /* \"contracts/ScoreCard.sol\":907:919  studentCount */\n      0x00\n      dup1\n        /* \"contracts/ScoreCard.sol\":907:921  studentCount++ */\n      dup2\n      sload\n      dup1\n      swap3\n      swap2\n      swap1\n      tag_23\n      swap1\n      tag_24\n      jump\t// in\n    tag_23:\n      swap2\n      swap1\n      pop\n      sstore\n      pop\n        /* \"contracts/ScoreCard.sol\":667:928  {... */\n      pop\n        /* \"contracts/ScoreCard.sol\":564:928  function addStudentDetails(string memory _studentFirstName, string memory _studentLastName) public... */\n      pop\n      pop\n      jump\t// out\n        /* \"contracts/ScoreCard.sol\":126:153  address public classTeacher */\n    tag_15:\n      0x01\n      0x00\n      swap1\n      sload\n      swap1\n      0x0100\n      exp\n      swap1\n      div\n      0xffffffffffffffffffffffffffffffffffffffff\n      and\n      dup2\n      jump\t// out\n    tag_21:\n      dup3\n      dup1\n      sload\n      tag_25\n      swap1\n      tag_26\n      jump\t// in\n    tag_25:\n      swap1\n      0x00\n      mstore\n      keccak256(0x00, 0x20)\n      swap1\n      0x1f\n      add\n      0x20\n      swap1\n      div\n      dup2\n      add\n      swap3\n      dup3\n      tag_28\n      jumpi\n      0x00\n      dup6\n      sstore\n      jump(tag_27)\n    tag_28:\n      dup3\n      0x1f\n      lt\n      tag_29\n      jumpi\n      dup1\n      mload\n      not(0xff)\n      and\n      dup4\n      dup1\n      add\n      or\n      dup6\n      sstore\n      jump(tag_27)\n    tag_29:\n      dup3\n      dup1\n      add\n      0x01\n      add\n      dup6\n      sstore\n      dup3\n      iszero\n      tag_27\n      jumpi\n      swap2\n      dup3\n      add\n    tag_30:\n      dup3\n      dup2\n      gt\n      iszero\n      tag_31\n      jumpi\n      dup3\n      mload\n      dup3\n      sstore\n      swap2\n      0x20\n      add\n      swap2\n      swap1\n      0x01\n      add\n      swap1\n      jump(tag_30)\n    tag_31:\n    tag_27:\n      pop\n      swap1\n      pop\n      tag_32\n      swap2\n      swap1\n      tag_33\n      jump\t// in\n    tag_32:\n      pop\n      swap1\n      jump\t// out\n    tag_33:\n    tag_34:\n      dup1\n      dup3\n      gt\n      iszero\n      tag_35\n      jumpi\n      0x00\n      dup2\n      0x00\n      swap1\n      sstore\n      pop\n      0x01\n      add\n      jump(tag_34)\n    tag_35:\n      pop\n      swap1\n      jump\t// out\n        /* \"#utility.yul\":7:419   */\n    tag_37:\n        /* \"#utility.yul\":85:90   */\n      0x00\n        /* \"#utility.yul\":110:176   */\n      tag_39\n        /* \"#utility.yul\":126:175   */\n      tag_40\n        /* \"#utility.yul\":168:174   */\n      dup5\n        /* \"#utility.yul\":126:175   */\n      tag_41\n      jump\t// in\n    tag_40:\n        /* \"#utility.yul\":110:176   */\n      tag_42\n      jump\t// in\n    tag_39:\n        /* \"#utility.yul\":101:176   */\n      swap1\n      pop\n        /* \"#utility.yul\":199:205   */\n      dup3\n        /* \"#utility.yul\":192:197   */\n      dup2\n        /* \"#utility.yul\":185:206   */\n      mstore\n        /* \"#utility.yul\":237:241   */\n      0x20\n        /* \"#utility.yul\":230:235   */\n      dup2\n        /* \"#utility.yul\":226:242   */\n      add\n        /* \"#utility.yul\":275:278   */\n      dup5\n        /* \"#utility.yul\":266:272   */\n      dup5\n        /* \"#utility.yul\":261:264   */\n      dup5\n        /* \"#utility.yul\":257:273   */\n      add\n        /* \"#utility.yul\":254:279   */\n      gt\n        /* \"#utility.yul\":251:363   */\n      iszero\n      tag_43\n      jumpi\n        /* \"#utility.yul\":282:361   */\n      tag_44\n      tag_45\n      jump\t// in\n    tag_44:\n        /* \"#utility.yul\":251:363   */\n    tag_43:\n        /* \"#utility.yul\":372:413   */\n      tag_46\n        /* \"#utility.yul\":406:412   */\n      dup5\n        /* \"#utility.yul\":401:404   */\n      dup3\n        /* \"#utility.yul\":396:399   */\n      dup6\n        /* \"#utility.yul\":372:413   */\n      tag_47\n      jump\t// in\n    tag_46:\n        /* \"#utility.yul\":91:419   */\n      pop\n        /* \"#utility.yul\":7:419   */\n      swap4\n      swap3\n      pop\n      pop\n      pop\n      jump\t// out\n        /* \"#utility.yul\":439:779   */\n    tag_48:\n        /* \"#utility.yul\":495:500   */\n      0x00\n        /* \"#utility.yul\":544:547   */\n      dup3\n        /* \"#utility.yul\":537:541   */\n      0x1f\n        /* \"#utility.yul\":529:535   */\n      dup4\n        /* \"#utility.yul\":525:542   */\n      add\n        /* \"#utility.yul\":521:548   */\n      slt\n        /* \"#utility.yul\":511:633   */\n      tag_50\n      jumpi\n        /* \"#utility.yul\":552:631   */\n      tag_51\n      tag_52\n      jump\t// in\n    tag_51:\n        /* \"#utility.yul\":511:633   */\n    tag_50:\n        /* \"#utility.yul\":669:675   */\n      dup2\n        /* \"#utility.yul\":656:676   */\n      calldataload\n        /* \"#utility.yul\":694:773   */\n      tag_53\n        /* \"#utility.yul\":769:772   */\n      dup5\n        /* \"#utility.yul\":761:767   */\n      dup3\n        /* \"#utility.yul\":754:758   */\n      0x20\n        /* \"#utility.yul\":746:752   */\n      dup7\n        /* \"#utility.yul\":742:759   */\n      add\n        /* \"#utility.yul\":694:773   */\n      tag_37\n      jump\t// in\n    tag_53:\n        /* \"#utility.yul\":685:773   */\n      swap2\n      pop\n        /* \"#utility.yul\":501:779   */\n      pop\n        /* \"#utility.yul\":439:779   */\n      swap3\n      swap2\n      pop\n      pop\n      jump\t// out\n        /* \"#utility.yul\":785:924   */\n    tag_54:\n        /* \"#utility.yul\":831:836   */\n      0x00\n        /* \"#utility.yul\":869:875   */\n      dup2\n        /* \"#utility.yul\":856:876   */\n      calldataload\n        /* \"#utility.yul\":847:876   */\n      swap1\n      pop\n        /* \"#utility.yul\":885:918   */\n      tag_56\n        /* \"#utility.yul\":912:917   */\n      dup2\n        /* \"#utility.yul\":885:918   */\n      tag_57\n      jump\t// in\n    tag_56:\n        /* \"#utility.yul\":785:924   */\n      swap3\n      swap2\n      pop\n      pop\n      jump\t// out\n        /* \"#utility.yul\":930:1764   */\n    tag_12:\n        /* \"#utility.yul\":1018:1024   */\n      0x00\n        /* \"#utility.yul\":1026:1032   */\n      dup1\n        /* \"#utility.yul\":1075:1077   */\n      0x40\n        /* \"#utility.yul\":1063:1072   */\n      dup4\n        /* \"#utility.yul\":1054:1061   */\n      dup6\n        /* \"#utility.yul\":1050:1073   */\n      sub\n        /* \"#utility.yul\":1046:1078   */\n      slt\n        /* \"#utility.yul\":1043:1162   */\n      iszero\n      tag_59\n      jumpi\n        /* \"#utility.yul\":1081:1160   */\n      tag_60\n      tag_61\n      jump\t// in\n    tag_60:\n        /* \"#utility.yul\":1043:1162   */\n    tag_59:\n        /* \"#utility.yul\":1229:1230   */\n      0x00\n        /* \"#utility.yul\":1218:1227   */\n      dup4\n        /* \"#utility.yul\":1214:1231   */\n      add\n        /* \"#utility.yul\":1201:1232   */\n      calldataload\n        /* \"#utility.yul\":1259:1277   */\n      0xffffffffffffffff\n        /* \"#utility.yul\":1251:1257   */\n      dup2\n        /* \"#utility.yul\":1248:1278   */\n      gt\n        /* \"#utility.yul\":1245:1362   */\n      iszero\n      tag_62\n      jumpi\n        /* \"#utility.yul\":1281:1360   */\n      tag_63\n      tag_64\n      jump\t// in\n    tag_63:\n        /* \"#utility.yul\":1245:1362   */\n    tag_62:\n        /* \"#utility.yul\":1386:1449   */\n      tag_65\n        /* \"#utility.yul\":1441:1448   */\n      dup6\n        /* \"#utility.yul\":1432:1438   */\n      dup3\n        /* \"#utility.yul\":1421:1430   */\n      dup7\n        /* \"#utility.yul\":1417:1439   */\n      add\n        /* \"#utility.yul\":1386:1449   */\n      tag_48\n      jump\t// in\n    tag_65:\n        /* \"#utility.yul\":1376:1449   */\n      swap3\n      pop\n        /* \"#utility.yul\":1172:1459   */\n      pop\n        /* \"#utility.yul\":1526:1528   */\n      0x20\n        /* \"#utility.yul\":1515:1524   */\n      dup4\n        /* \"#utility.yul\":1511:1529   */\n      add\n        /* \"#utility.yul\":1498:1530   */\n      calldataload\n        /* \"#utility.yul\":1557:1575   */\n      0xffffffffffffffff\n        /* \"#utility.yul\":1549:1555   */\n      dup2\n        /* \"#utility.yul\":1546:1576   */\n      gt\n        /* \"#utility.yul\":1543:1660   */\n      iszero\n      tag_66\n      jumpi\n        /* \"#utility.yul\":1579:1658   */\n      tag_67\n      tag_64\n      jump\t// in\n    tag_67:\n        /* \"#utility.yul\":1543:1660   */\n    tag_66:\n        /* \"#utility.yul\":1684:1747   */\n      tag_68\n        /* \"#utility.yul\":1739:1746   */\n      dup6\n        /* \"#utility.yul\":1730:1736   */\n      dup3\n        /* \"#utility.yul\":1719:1728   */\n      dup7\n        /* \"#utility.yul\":1715:1737   */\n      add\n        /* \"#utility.yul\":1684:1747   */\n      tag_48\n      jump\t// in\n    tag_68:\n        /* \"#utility.yul\":1674:1747   */\n      swap2\n      pop\n        /* \"#utility.yul\":1469:1757   */\n      pop\n        /* \"#utility.yul\":930:1764   */\n      swap3\n      pop\n      swap3\n      swap1\n      pop\n      jump\t// out\n        /* \"#utility.yul\":1770:2535   */\n    tag_8:\n        /* \"#utility.yul\":1856:1862   */\n      0x00\n        /* \"#utility.yul\":1864:1870   */\n      dup1\n        /* \"#utility.yul\":1872:1878   */\n      0x00\n        /* \"#utility.yul\":1880:1886   */\n      dup1\n        /* \"#utility.yul\":1929:1932   */\n      0x80\n        /* \"#utility.yul\":1917:1926   */\n      dup6\n        /* \"#utility.yul\":1908:1915   */\n      dup8\n        /* \"#utility.yul\":1904:1927   */\n      sub\n        /* \"#utility.yul\":1900:1933   */\n      slt\n        /* \"#utility.yul\":1897:2017   */\n      iszero\n      tag_70\n      jumpi\n        /* \"#utility.yul\":1936:2015   */\n      tag_71\n      tag_61\n      jump\t// in\n    tag_71:\n        /* \"#utility.yul\":1897:2017   */\n    tag_70:\n        /* \"#utility.yul\":2056:2057   */\n      0x00\n        /* \"#utility.yul\":2081:2134   */\n      tag_72\n        /* \"#utility.yul\":2126:2133   */\n      dup8\n        /* \"#utility.yul\":2117:2123   */\n      dup3\n        /* \"#utility.yul\":2106:2115   */\n      dup9\n        /* \"#utility.yul\":2102:2124   */\n      add\n        /* \"#utility.yul\":2081:2134   */\n      tag_54\n      jump\t// in\n    tag_72:\n        /* \"#utility.yul\":2071:2134   */\n      swap5\n      pop\n        /* \"#utility.yul\":2027:2144   */\n      pop\n        /* \"#utility.yul\":2183:2185   */\n      0x20\n        /* \"#utility.yul\":2209:2262   */\n      tag_73\n        /* \"#utility.yul\":2254:2261   */\n      dup8\n        /* \"#utility.yul\":2245:2251   */\n      dup3\n        /* \"#utility.yul\":2234:2243   */\n      dup9\n        /* \"#utility.yul\":2230:2252   */\n      add\n        /* \"#utility.yul\":2209:2262   */\n      tag_54\n      jump\t// in\n    tag_73:\n        /* \"#utility.yul\":2199:2262   */\n      swap4\n      pop\n        /* \"#utility.yul\":2154:2272   */\n      pop\n        /* \"#utility.yul\":2311:2313   */\n      0x40\n        /* \"#utility.yul\":2337:2390   */\n      tag_74\n        /* \"#utility.yul\":2382:2389   */\n      dup8\n        /* \"#utility.yul\":2373:2379   */\n      dup3\n        /* \"#utility.yul\":2362:2371   */\n      dup9\n        /* \"#utility.yul\":2358:2380   */\n      add\n        /* \"#utility.yul\":2337:2390   */\n      tag_54\n      jump\t// in\n    tag_74:\n        /* \"#utility.yul\":2327:2390   */\n      swap3\n      pop\n        /* \"#utility.yul\":2282:2400   */\n      pop\n        /* \"#utility.yul\":2439:2441   */\n      0x60\n        /* \"#utility.yul\":2465:2518   */\n      tag_75\n        /* \"#utility.yul\":2510:2517   */\n      dup8\n        /* \"#utility.yul\":2501:2507   */\n      dup3\n        /* \"#utility.yul\":2490:2499   */\n      dup9\n        /* \"#utility.yul\":2486:2508   */\n      add\n        /* \"#utility.yul\":2465:2518   */\n      tag_54\n      jump\t// in\n    tag_75:\n        /* \"#utility.yul\":2455:2518   */\n      swap2\n      pop\n        /* \"#utility.yul\":2410:2528   */\n      pop\n        /* \"#utility.yul\":1770:2535   */\n      swap3\n      swap6\n      swap2\n      swap5\n      pop\n      swap3\n      pop\n      jump\t// out\n        /* \"#utility.yul\":2541:2659   */\n    tag_76:\n        /* \"#utility.yul\":2628:2652   */\n      tag_78\n        /* \"#utility.yul\":2646:2651   */\n      dup2\n        /* \"#utility.yul\":2628:2652   */\n      tag_79\n      jump\t// in\n    tag_78:\n        /* \"#utility.yul\":2623:2626   */\n      dup3\n        /* \"#utility.yul\":2616:2653   */\n      mstore\n        /* \"#utility.yul\":2541:2659   */\n      pop\n      pop\n      jump\t// out\n        /* \"#utility.yul\":2665:2887   */\n    tag_17:\n        /* \"#utility.yul\":2758:2762   */\n      0x00\n        /* \"#utility.yul\":2796:2798   */\n      0x20\n        /* \"#utility.yul\":2785:2794   */\n      dup3\n        /* \"#utility.yul\":2781:2799   */\n      add\n        /* \"#utility.yul\":2773:2799   */\n      swap1\n      pop\n        /* \"#utility.yul\":2809:2880   */\n      tag_81\n        /* \"#utility.yul\":2877:2878   */\n      0x00\n        /* \"#utility.yul\":2866:2875   */\n      dup4\n        /* \"#utility.yul\":2862:2879   */\n      add\n        /* \"#utility.yul\":2853:2859   */\n      dup5\n        /* \"#utility.yul\":2809:2880   */\n      tag_76\n      jump\t// in\n    tag_81:\n        /* \"#utility.yul\":2665:2887   */\n      swap3\n      swap2\n      pop\n      pop\n      jump\t// out\n        /* \"#utility.yul\":2893:3022   */\n    tag_42:\n        /* \"#utility.yul\":2927:2933   */\n      0x00\n        /* \"#utility.yul\":2954:2974   */\n      tag_83\n      tag_84\n      jump\t// in\n    tag_83:\n        /* \"#utility.yul\":2944:2974   */\n      swap1\n      pop\n        /* \"#utility.yul\":2983:3016   */\n      tag_85\n        /* \"#utility.yul\":3011:3015   */\n      dup3\n        /* \"#utility.yul\":3003:3009   */\n      dup3\n        /* \"#utility.yul\":2983:3016   */\n      tag_86\n      jump\t// in\n    tag_85:\n        /* \"#utility.yul\":2893:3022   */\n      swap2\n      swap1\n      pop\n      jump\t// out\n        /* \"#utility.yul\":3028:3103   */\n    tag_84:\n        /* \"#utility.yul\":3061:3067   */\n      0x00\n        /* \"#utility.yul\":3094:3096   */\n      0x40\n        /* \"#utility.yul\":3088:3097   */\n      mload\n        /* \"#utility.yul\":3078:3097   */\n      swap1\n      pop\n        /* \"#utility.yul\":3028:3103   */\n      swap1\n      jump\t// out\n        /* \"#utility.yul\":3109:3417   */\n    tag_41:\n        /* \"#utility.yul\":3171:3175   */\n      0x00\n        /* \"#utility.yul\":3261:3279   */\n      0xffffffffffffffff\n        /* \"#utility.yul\":3253:3259   */\n      dup3\n        /* \"#utility.yul\":3250:3280   */\n      gt\n        /* \"#utility.yul\":3247:3303   */\n      iszero\n      tag_89\n      jumpi\n        /* \"#utility.yul\":3283:3301   */\n      tag_90\n      tag_91\n      jump\t// in\n    tag_90:\n        /* \"#utility.yul\":3247:3303   */\n    tag_89:\n        /* \"#utility.yul\":3321:3350   */\n      tag_92\n        /* \"#utility.yul\":3343:3349   */\n      dup3\n        /* \"#utility.yul\":3321:3350   */\n      tag_93\n      jump\t// in\n    tag_92:\n        /* \"#utility.yul\":3313:3350   */\n      swap1\n      pop\n        /* \"#utility.yul\":3405:3409   */\n      0x20\n        /* \"#utility.yul\":3399:3403   */\n      dup2\n        /* \"#utility.yul\":3395:3410   */\n      add\n        /* \"#utility.yul\":3387:3410   */\n      swap1\n      pop\n        /* \"#utility.yul\":3109:3417   */\n      swap2\n      swap1\n      pop\n      jump\t// out\n        /* \"#utility.yul\":3423:3519   */\n    tag_79:\n        /* \"#utility.yul\":3460:3467   */\n      0x00\n        /* \"#utility.yul\":3489:3513   */\n      tag_95\n        /* \"#utility.yul\":3507:3512   */\n      dup3\n        /* \"#utility.yul\":3489:3513   */\n      tag_96\n      jump\t// in\n    tag_95:\n        /* \"#utility.yul\":3478:3513   */\n      swap1\n      pop\n        /* \"#utility.yul\":3423:3519   */\n      swap2\n      swap1\n      pop\n      jump\t// out\n        /* \"#utility.yul\":3525:3651   */\n    tag_96:\n        /* \"#utility.yul\":3562:3569   */\n      0x00\n        /* \"#utility.yul\":3602:3644   */\n      0xffffffffffffffffffffffffffffffffffffffff\n        /* \"#utility.yul\":3595:3600   */\n      dup3\n        /* \"#utility.yul\":3591:3645   */\n      and\n        /* \"#utility.yul\":3580:3645   */\n      swap1\n      pop\n        /* \"#utility.yul\":3525:3651   */\n      swap2\n      swap1\n      pop\n      jump\t// out\n        /* \"#utility.yul\":3657:3734   */\n    tag_98:\n        /* \"#utility.yul\":3694:3701   */\n      0x00\n        /* \"#utility.yul\":3723:3728   */\n      dup2\n        /* \"#utility.yul\":3712:3728   */\n      swap1\n      pop\n        /* \"#utility.yul\":3657:3734   */\n      swap2\n      swap1\n      pop\n      jump\t// out\n        /* \"#utility.yul\":3740:3894   */\n    tag_47:\n        /* \"#utility.yul\":3824:3830   */\n      dup3\n        /* \"#utility.yul\":3819:3822   */\n      dup2\n        /* \"#utility.yul\":3814:3817   */\n      dup4\n        /* \"#utility.yul\":3801:3831   */\n      calldatacopy\n        /* \"#utility.yul\":3886:3887   */\n      0x00\n        /* \"#utility.yul\":3877:3883   */\n      dup4\n        /* \"#utility.yul\":3872:3875   */\n      dup4\n        /* \"#utility.yul\":3868:3884   */\n      add\n        /* \"#utility.yul\":3861:3888   */\n      mstore\n        /* \"#utility.yul\":3740:3894   */\n      pop\n      pop\n      pop\n      jump\t// out\n        /* \"#utility.yul\":3900:4220   */\n    tag_26:\n        /* \"#utility.yul\":3944:3950   */\n      0x00\n        /* \"#utility.yul\":3981:3982   */\n      0x02\n        /* \"#utility.yul\":3975:3979   */\n      dup3\n        /* \"#utility.yul\":3971:3983   */\n      div\n        /* \"#utility.yul\":3961:3983   */\n      swap1\n      pop\n        /* \"#utility.yul\":4028:4029   */\n      0x01\n        /* \"#utility.yul\":4022:4026   */\n      dup3\n        /* \"#utility.yul\":4018:4030   */\n      and\n        /* \"#utility.yul\":4049:4067   */\n      dup1\n        /* \"#utility.yul\":4039:4120   */\n      tag_102\n      jumpi\n        /* \"#utility.yul\":4105:4109   */\n      0x7f\n        /* \"#utility.yul\":4097:4103   */\n      dup3\n        /* \"#utility.yul\":4093:4110   */\n      and\n        /* \"#utility.yul\":4083:4110   */\n      swap2\n      pop\n        /* \"#utility.yul\":4039:4120   */\n    tag_102:\n        /* \"#utility.yul\":4167:4169   */\n      0x20\n        /* \"#utility.yul\":4159:4165   */\n      dup3\n        /* \"#utility.yul\":4156:4170   */\n      lt\n        /* \"#utility.yul\":4136:4154   */\n      dup2\n        /* \"#utility.yul\":4133:4171   */\n      eq\n        /* \"#utility.yul\":4130:4214   */\n      iszero\n      tag_103\n      jumpi\n        /* \"#utility.yul\":4186:4204   */\n      tag_104\n      tag_105\n      jump\t// in\n    tag_104:\n        /* \"#utility.yul\":4130:4214   */\n    tag_103:\n        /* \"#utility.yul\":3951:4220   */\n      pop\n        /* \"#utility.yul\":3900:4220   */\n      swap2\n      swap1\n      pop\n      jump\t// out\n        /* \"#utility.yul\":4226:4507   */\n    tag_86:\n        /* \"#utility.yul\":4309:4336   */\n      tag_107\n        /* \"#utility.yul\":4331:4335   */\n      dup3\n        /* \"#utility.yul\":4309:4336   */\n      tag_93\n      jump\t// in\n    tag_107:\n        /* \"#utility.yul\":4301:4307   */\n      dup2\n        /* \"#utility.yul\":4297:4337   */\n      add\n        /* \"#utility.yul\":4439:4445   */\n      dup2\n        /* \"#utility.yul\":4427:4437   */\n      dup2\n        /* \"#utility.yul\":4424:4446   */\n      lt\n        /* \"#utility.yul\":4403:4421   */\n      0xffffffffffffffff\n        /* \"#utility.yul\":4391:4401   */\n      dup3\n        /* \"#utility.yul\":4388:4422   */\n      gt\n        /* \"#utility.yul\":4385:4447   */\n      or\n        /* \"#utility.yul\":4382:4470   */\n      iszero\n      tag_108\n      jumpi\n        /* \"#utility.yul\":4450:4468   */\n      tag_109\n      tag_91\n      jump\t// in\n    tag_109:\n        /* \"#utility.yul\":4382:4470   */\n    tag_108:\n        /* \"#utility.yul\":4490:4500   */\n      dup1\n        /* \"#utility.yul\":4486:4488   */\n      0x40\n        /* \"#utility.yul\":4479:4501   */\n      mstore\n        /* \"#utility.yul\":4269:4507   */\n      pop\n        /* \"#utility.yul\":4226:4507   */\n      pop\n      pop\n      jump\t// out\n        /* \"#utility.yul\":4513:4746   */\n    tag_24:\n        /* \"#utility.yul\":4552:4555   */\n      0x00\n        /* \"#utility.yul\":4575:4599   */\n      tag_111\n        /* \"#utility.yul\":4593:4598   */\n      dup3\n        /* \"#utility.yul\":4575:4599   */\n      tag_98\n      jump\t// in\n    tag_111:\n        /* \"#utility.yul\":4566:4599   */\n      swap2\n      pop\n        /* \"#utility.yul\":4621:4687   */\n      0xffffffffffffffffffffffffffffffffffffffffffffffffffffffffffffffff\n        /* \"#utility.yul\":4614:4619   */\n      dup3\n        /* \"#utility.yul\":4611:4688   */\n      eq\n        /* \"#utility.yul\":4608:4711   */\n      iszero\n      tag_112\n      jumpi\n        /* \"#utility.yul\":4691:4709   */\n      tag_113\n      tag_114\n      jump\t// in\n    tag_113:\n        /* \"#utility.yul\":4608:4711   */\n    tag_112:\n        /* \"#utility.yul\":4738:4739   */\n      0x01\n        /* \"#utility.yul\":4731:4736   */\n      dup3\n        /* \"#utility.yul\":4727:4740   */\n      add\n        /* \"#utility.yul\":4720:4740   */\n      swap1\n      pop\n        /* \"#utility.yul\":4513:4746   */\n      swap2\n      swap1\n      pop\n      jump\t// out\n        /* \"#utility.yul\":4752:4932   */\n    tag_114:\n        /* \"#utility.yul\":4800:4877   */\n      0x4e487b7100000000000000000000000000000000000000000000000000000000\n        /* \"#utility.yul\":4797:4798   */\n      0x00\n        /* \"#utility.yul\":4790:4878   */\n      mstore\n        /* \"#utility.yul\":4897:4901   */\n      0x11\n        /* \"#utility.yul\":4894:4895   */\n      0x04\n        /* \"#utility.yul\":4887:4902   */\n      mstore\n        /* \"#utility.yul\":4921:4925   */\n      0x24\n        /* \"#utility.yul\":4918:4919   */\n      0x00\n        /* \"#utility.yul\":4911:4926   */\n      revert\n        /* \"#utility.yul\":4938:5118   */\n    tag_105:\n        /* \"#utility.yul\":4986:5063   */\n      0x4e487b7100000000000000000000000000000000000000000000000000000000\n        /* \"#utility.yul\":4983:4984   */\n      0x00\n        /* \"#utility.yul\":4976:5064   */\n      mstore\n        /* \"#utility.yul\":5083:5087   */\n      0x22\n        /* \"#utility.yul\":5080:5081   */\n      0x04\n        /* \"#utility.yul\":5073:5088   */\n      mstore\n        /* \"#utility.yul\":5107:5111   */\n      0x24\n        /* \"#utility.yul\":5104:5105   */\n      0x00\n        /* \"#utility.yul\":5097:5112   */\n      revert\n        /* \"#utility.yul\":5124:5304   */\n    tag_91:\n        /* \"#utility.yul\":5172:5249   */\n      0x4e487b7100000000000000000000000000000000000000000000000000000000\n        /* \"#utility.yul\":5169:5170   */\n      0x00\n        /* \"#utility.yul\":5162:5250   */\n      mstore\n        /* \"#utility.yul\":5269:5273   */\n      0x41\n        /* \"#utility.yul\":5266:5267   */\n      0x04\n        /* \"#utility.yul\":5259:5274   */\n      mstore\n        /* \"#utility.yul\":5293:5297   */\n      0x24\n        /* \"#utility.yul\":5290:5291   */\n      0x00\n        /* \"#utility.yul\":5283:5298   */\n      revert\n        /* \"#utility.yul\":5310:5427   */\n    tag_52:\n        /* \"#utility.yul\":5419:5420   */\n      0x00\n        /* \"#utility.yul\":5416:5417   */\n      dup1\n        /* \"#utility.yul\":5409:5421   */\n      revert\n        /* \"#utility.yul\":5433:5550   */\n    tag_45:\n        /* \"#utility.yul\":5542:5543   */\n      0x00\n        /* \"#utility.yul\":5539:5540   */\n      dup1\n        /* \"#utility.yul\":5532:5544   */\n      revert\n        /* \"#utility.yul\":5556:5673   */\n    tag_64:\n        /* \"#utility.yul\":5665:5666   */\n      0x00\n        /* \"#utility.yul\":5662:5663   */\n      dup1\n        /* \"#utility.yul\":5655:5667   */\n      revert\n        /* \"#utility.yul\":5679:5796   */\n    tag_61:\n        /* \"#utility.yul\":5788:5789   */\n      0x00\n        /* \"#utility.yul\":5785:5786   */\n      dup1\n        /* \"#utility.yul\":5778:5790   */\n      revert\n        /* \"#utility.yul\":5802:5904   */\n    tag_93:\n        /* \"#utility.yul\":5843:5849   */\n      0x00\n        /* \"#utility.yul\":5894:5896   */\n      0x1f\n        /* \"#utility.yul\":5890:5897   */\n      not\n        /* \"#utility.yul\":5885:5887   */\n      0x1f\n        /* \"#utility.yul\":5878:5883   */\n      dup4\n        /* \"#utility.yul\":5874:5888   */\n      add\n        /* \"#utility.yul\":5870:5898   */\n      and\n        /* \"#utility.yul\":5860:5898   */\n      swap1\n      pop\n        /* \"#utility.yul\":5802:5904   */\n      swap2\n      swap1\n      pop\n      jump\t// out\n        /* \"#utility.yul\":5910:6032   */\n    tag_57:\n        /* \"#utility.yul\":5983:6007   */\n      tag_124\n        /* \"#utility.yul\":6001:6006   */\n      dup2\n        /* \"#utility.yul\":5983:6007   */\n      tag_98\n      jump\t// in\n    tag_124:\n        /* \"#utility.yul\":5976:5981   */\n      dup2\n        /* \"#utility.yul\":5973:6008   */\n      eq\n        /* \"#utility.yul\":5963:6026   */\n      tag_125\n      jumpi\n        /* \"#utility.yul\":6022:6023   */\n      0x00\n        /* \"#utility.yul\":6019:6020   */\n      dup1\n        /* \"#utility.yul\":6012:6024   */\n      revert\n        /* \"#utility.yul\":5963:6026   */\n    tag_125:\n        /* \"#utility.yul\":5910:6032   */\n      pop\n      jump\t// out\n\n    auxdata: 0xa2646970667358221220d0a1324f6a9ff2891ed3a8e7163fc613fd31a0f9f1fcd36e5f184f7175fd040764736f6c63430008070033\n}\n",
				"bytecode": {
					"linkReferences": {},
					"object": "60806040526000805534801561001457600080fd5b5033600160006101000a81548173ffffffffffffffffffffffffffffffffffffffff021916908373ffffffffffffffffffffffffffffffffffffffff1602179055506105f2806100656000396000f3fe608060405234801561001057600080fd5b50600436106100415760003560e01c80633c81bde714610046578063a24232c514610062578063be645d0a1461007e575b600080fd5b610060600480360381019061005b9190610315565b61009c565b005b61007c6004803603810190610077919061029d565b6100de565b005b61008661014f565b604051610093919061038b565b60405180910390f35b60006003600086815260200190815260200160002090508381600101819055508181600301819055508281600201819055508481600001819055505050505050565b6000600260008054815260200190815260200160002090508281600001908051906020019061010e929190610175565b5081816001019080519060200190610127929190610175565b506000548160020181905550600080815480929190610145906104aa565b9190505550505050565b600160009054906101000a900473ffffffffffffffffffffffffffffffffffffffff1681565b82805461018190610447565b90600052602060002090601f0160209004810192826101a357600085556101ea565b82601f106101bc57805160ff19168380011785556101ea565b828001600101855582156101ea579182015b828111156101e95782518255916020019190600101906101ce565b5b5090506101f791906101fb565b5090565b5b808211156102145760008160009055506001016101fc565b5090565b600061022b610226846103cb565b6103a6565b90508281526020810184848401111561024757610246610585565b5b610252848285610438565b509392505050565b600082601f83011261026f5761026e610580565b5b813561027f848260208601610218565b91505092915050565b600081359050610297816105a5565b92915050565b600080604083850312156102b4576102b361058f565b5b600083013567ffffffffffffffff8111156102d2576102d161058a565b5b6102de8582860161025a565b925050602083013567ffffffffffffffff8111156102ff576102fe61058a565b5b61030b8582860161025a565b9150509250929050565b6000806000806080858703121561032f5761032e61058f565b5b600061033d87828801610288565b945050602061034e87828801610288565b935050604061035f87828801610288565b925050606061037087828801610288565b91505092959194509250565b610385816103fc565b82525050565b60006020820190506103a0600083018461037c565b92915050565b60006103b06103c1565b90506103bc8282610479565b919050565b6000604051905090565b600067ffffffffffffffff8211156103e6576103e5610551565b5b6103ef82610594565b9050602081019050919050565b60006104078261040e565b9050919050565b600073ffffffffffffffffffffffffffffffffffffffff82169050919050565b6000819050919050565b82818337600083830152505050565b6000600282049050600182168061045f57607f821691505b6020821081141561047357610472610522565b5b50919050565b61048282610594565b810181811067ffffffffffffffff821117156104a1576104a0610551565b5b80604052505050565b60006104b58261042e565b91507fffffffffffffffffffffffffffffffffffffffffffffffffffffffffffffffff8214156104e8576104e76104f3565b5b600182019050919050565b7f4e487b7100000000000000000000000000000000000000000000000000000000600052601160045260246000fd5b7f4e487b7100000000000000000000000000000000000000000000000000000000600052602260045260246000fd5b7f4e487b7100000000000000000000000000000000000000000000000000000000600052604160045260246000fd5b600080fd5b600080fd5b600080fd5b600080fd5b6000601f19601f8301169050919050565b6105ae8161042e565b81146105b957600080fd5b5056fea2646970667358221220d0a1324f6a9ff2891ed3a8e7163fc613fd31a0f9f1fcd36e5f184f7175fd040764736f6c63430008070033",
					"opcodes": "PUSH1 0x80 PUSH1 0x40 MSTORE PUSH1 0x0 DUP1 SSTORE CALLVALUE DUP1 ISZERO PUSH2 0x14 JUMPI PUSH1 0x0 DUP1 REVERT JUMPDEST POP CALLER PUSH1 0x1 PUSH1 0x0 PUSH2 0x100 EXP DUP2 SLOAD DUP2 PUSH20 0xFFFFFFFFFFFFFFFFFFFFFFFFFFFFFFFFFFFFFFFF MUL NOT AND SWAP1 DUP4 PUSH20 0xFFFFFFFFFFFFFFFFFFFFFFFFFFFFFFFFFFFFFFFF AND MUL OR SWAP1 SSTORE POP PUSH2 0x5F2 DUP1 PUSH2 0x65 PUSH1 0x0 CODECOPY PUSH1 0x0 RETURN INVALID PUSH1 0x80 PUSH1 0x40 MSTORE CALLVALUE DUP1 ISZERO PUSH2 0x10 JUMPI PUSH1 0x0 DUP1 REVERT JUMPDEST POP PUSH1 0x4 CALLDATASIZE LT PUSH2 0x41 JUMPI PUSH1 0x0 CALLDATALOAD PUSH1 0xE0 SHR DUP1 PUSH4 0x3C81BDE7 EQ PUSH2 0x46 JUMPI DUP1 PUSH4 0xA24232C5 EQ PUSH2 0x62 JUMPI DUP1 PUSH4 0xBE645D0A EQ PUSH2 0x7E JUMPI JUMPDEST PUSH1 0x0 DUP1 REVERT JUMPDEST PUSH2 0x60 PUSH1 0x4 DUP1 CALLDATASIZE SUB DUP2 ADD SWAP1 PUSH2 0x5B SWAP2 SWAP1 PUSH2 0x315 JUMP JUMPDEST PUSH2 0x9C JUMP JUMPDEST STOP JUMPDEST PUSH2 0x7C PUSH1 0x4 DUP1 CALLDATASIZE SUB DUP2 ADD SWAP1 PUSH2 0x77 SWAP2 SWAP1 PUSH2 0x29D JUMP JUMPDEST PUSH2 0xDE JUMP JUMPDEST STOP JUMPDEST PUSH2 0x86 PUSH2 0x14F JUMP JUMPDEST PUSH1 0x40 MLOAD PUSH2 0x93 SWAP2 SWAP1 PUSH2 0x38B JUMP JUMPDEST PUSH1 0x40 MLOAD DUP1 SWAP2 SUB SWAP1 RETURN JUMPDEST PUSH1 0x0 PUSH1 0x3 PUSH1 0x0 DUP7 DUP2 MSTORE PUSH1 0x20 ADD SWAP1 DUP2 MSTORE PUSH1 0x20 ADD PUSH1 0x0 KECCAK256 SWAP1 POP DUP4 DUP2 PUSH1 0x1 ADD DUP2 SWAP1 SSTORE POP DUP2 DUP2 PUSH1 0x3 ADD DUP2 SWAP1 SSTORE POP DUP3 DUP2 PUSH1 0x2 ADD DUP2 SWAP1 SSTORE POP DUP5 DUP2 PUSH1 0x0 ADD DUP2 SWAP1 SSTORE POP POP POP POP POP POP JUMP JUMPDEST PUSH1 0x0 PUSH1 0x2 PUSH1 0x0 DUP1 SLOAD DUP2 MSTORE PUSH1 0x20 ADD SWAP1 DUP2 MSTORE PUSH1 0x20 ADD PUSH1 0x0 KECCAK256 SWAP1 POP DUP3 DUP2 PUSH1 0x0 ADD SWAP1 DUP1 MLOAD SWAP1 PUSH1 0x20 ADD SWAP1 PUSH2 0x10E SWAP3 SWAP2 SWAP1 PUSH2 0x175 JUMP JUMPDEST POP DUP2 DUP2 PUSH1 0x1 ADD SWAP1 DUP1 MLOAD SWAP1 PUSH1 0x20 ADD SWAP1 PUSH2 0x127 SWAP3 SWAP2 SWAP1 PUSH2 0x175 JUMP JUMPDEST POP PUSH1 0x0 SLOAD DUP2 PUSH1 0x2 ADD DUP2 SWAP1 SSTORE POP PUSH1 0x0 DUP1 DUP2 SLOAD DUP1 SWAP3 SWAP2 SWAP1 PUSH2 0x145 SWAP1 PUSH2 0x4AA JUMP JUMPDEST SWAP2 SWAP1 POP SSTORE POP POP POP POP JUMP JUMPDEST PUSH1 0x1 PUSH1 0x0 SWAP1 SLOAD SWAP1 PUSH2 0x100 EXP SWAP1 DIV PUSH20 0xFFFFFFFFFFFFFFFFFFFFFFFFFFFFFFFFFFFFFFFF AND DUP2 JUMP JUMPDEST DUP3 DUP1 SLOAD PUSH2 0x181 SWAP1 PUSH2 0x447 JUMP JUMPDEST SWAP1 PUSH1 0x0 MSTORE PUSH1 0x20 PUSH1 0x0 KECCAK256 SWAP1 PUSH1 0x1F ADD PUSH1 0x20 SWAP1 DIV DUP2 ADD SWAP3 DUP3 PUSH2 0x1A3 JUMPI PUSH1 0x0 DUP6 SSTORE PUSH2 0x1EA JUMP JUMPDEST DUP3 PUSH1 0x1F LT PUSH2 0x1BC JUMPI DUP1 MLOAD PUSH1 0xFF NOT AND DUP4 DUP1 ADD OR DUP6 SSTORE PUSH2 0x1EA JUMP JUMPDEST DUP3 DUP1 ADD PUSH1 0x1 ADD DUP6 SSTORE DUP3 ISZERO PUSH2 0x1EA JUMPI SWAP2 DUP3 ADD JUMPDEST DUP3 DUP2 GT ISZERO PUSH2 0x1E9 JUMPI DUP3 MLOAD DUP3 SSTORE SWAP2 PUSH1 0x20 ADD SWAP2 SWAP1 PUSH1 0x1 ADD SWAP1 PUSH2 0x1CE JUMP JUMPDEST JUMPDEST POP SWAP1 POP PUSH2 0x1F7 SWAP2 SWAP1 PUSH2 0x1FB JUMP JUMPDEST POP SWAP1 JUMP JUMPDEST JUMPDEST DUP1 DUP3 GT ISZERO PUSH2 0x214 JUMPI PUSH1 0x0 DUP2 PUSH1 0x0 SWAP1 SSTORE POP PUSH1 0x1 ADD PUSH2 0x1FC JUMP JUMPDEST POP SWAP1 JUMP JUMPDEST PUSH1 0x0 PUSH2 0x22B PUSH2 0x226 DUP5 PUSH2 0x3CB JUMP JUMPDEST PUSH2 0x3A6 JUMP JUMPDEST SWAP1 POP DUP3 DUP2 MSTORE PUSH1 0x20 DUP2 ADD DUP5 DUP5 DUP5 ADD GT ISZERO PUSH2 0x247 JUMPI PUSH2 0x246 PUSH2 0x585 JUMP JUMPDEST JUMPDEST PUSH2 0x252 DUP5 DUP3 DUP6 PUSH2 0x438 JUMP JUMPDEST POP SWAP4 SWAP3 POP POP POP JUMP JUMPDEST PUSH1 0x0 DUP3 PUSH1 0x1F DUP4 ADD SLT PUSH2 0x26F JUMPI PUSH2 0x26E PUSH2 0x580 JUMP JUMPDEST JUMPDEST DUP2 CALLDATALOAD PUSH2 0x27F DUP5 DUP3 PUSH1 0x20 DUP7 ADD PUSH2 0x218 JUMP JUMPDEST SWAP2 POP POP SWAP3 SWAP2 POP POP JUMP JUMPDEST PUSH1 0x0 DUP2 CALLDATALOAD SWAP1 POP PUSH2 0x297 DUP2 PUSH2 0x5A5 JUMP JUMPDEST SWAP3 SWAP2 POP POP JUMP JUMPDEST PUSH1 0x0 DUP1 PUSH1 0x40 DUP4 DUP6 SUB SLT ISZERO PUSH2 0x2B4 JUMPI PUSH2 0x2B3 PUSH2 0x58F JUMP JUMPDEST JUMPDEST PUSH1 0x0 DUP4 ADD CALLDATALOAD PUSH8 0xFFFFFFFFFFFFFFFF DUP2 GT ISZERO PUSH2 0x2D2 JUMPI PUSH2 0x2D1 PUSH2 0x58A JUMP JUMPDEST JUMPDEST PUSH2 0x2DE DUP6 DUP3 DUP7 ADD PUSH2 0x25A JUMP JUMPDEST SWAP3 POP POP PUSH1 0x20 DUP4 ADD CALLDATALOAD PUSH8 0xFFFFFFFFFFFFFFFF DUP2 GT ISZERO PUSH2 0x2FF JUMPI PUSH2 0x2FE PUSH2 0x58A JUMP JUMPDEST JUMPDEST PUSH2 0x30B DUP6 DUP3 DUP7 ADD PUSH2 0x25A JUMP JUMPDEST SWAP2 POP POP SWAP3 POP SWAP3 SWAP1 POP JUMP JUMPDEST PUSH1 0x0 DUP1 PUSH1 0x0 DUP1 PUSH1 0x80 DUP6 DUP8 SUB SLT ISZERO PUSH2 0x32F JUMPI PUSH2 0x32E PUSH2 0x58F JUMP JUMPDEST JUMPDEST PUSH1 0x0 PUSH2 0x33D DUP8 DUP3 DUP9 ADD PUSH2 0x288 JUMP JUMPDEST SWAP5 POP POP PUSH1 0x20 PUSH2 0x34E DUP8 DUP3 DUP9 ADD PUSH2 0x288 JUMP JUMPDEST SWAP4 POP POP PUSH1 0x40 PUSH2 0x35F DUP8 DUP3 DUP9 ADD PUSH2 0x288 JUMP JUMPDEST SWAP3 POP POP PUSH1 0x60 PUSH2 0x370 DUP8 DUP3 DUP9 ADD PUSH2 0x288 JUMP JUMPDEST SWAP2 POP POP SWAP3 SWAP6 SWAP2 SWAP5 POP SWAP3 POP JUMP JUMPDEST PUSH2 0x385 DUP2 PUSH2 0x3FC JUMP JUMPDEST DUP3 MSTORE POP POP JUMP JUMPDEST PUSH1 0x0 PUSH1 0x20 DUP3 ADD SWAP1 POP PUSH2 0x3A0 PUSH1 0x0 DUP4 ADD DUP5 PUSH2 0x37C JUMP JUMPDEST SWAP3 SWAP2 POP POP JUMP JUMPDEST PUSH1 0x0 PUSH2 0x3B0 PUSH2 0x3C1 JUMP JUMPDEST SWAP1 POP PUSH2 0x3BC DUP3 DUP3 PUSH2 0x479 JUMP JUMPDEST SWAP2 SWAP1 POP JUMP JUMPDEST PUSH1 0x0 PUSH1 0x40 MLOAD SWAP1 POP SWAP1 JUMP JUMPDEST PUSH1 0x0 PUSH8 0xFFFFFFFFFFFFFFFF DUP3 GT ISZERO PUSH2 0x3E6 JUMPI PUSH2 0x3E5 PUSH2 0x551 JUMP JUMPDEST JUMPDEST PUSH2 0x3EF DUP3 PUSH2 0x594 JUMP JUMPDEST SWAP1 POP PUSH1 0x20 DUP2 ADD SWAP1 POP SWAP2 SWAP1 POP JUMP JUMPDEST PUSH1 0x0 PUSH2 0x407 DUP3 PUSH2 0x40E JUMP JUMPDEST SWAP1 POP SWAP2 SWAP1 POP JUMP JUMPDEST PUSH1 0x0 PUSH20 0xFFFFFFFFFFFFFFFFFFFFFFFFFFFFFFFFFFFFFFFF DUP3 AND SWAP1 POP SWAP2 SWAP1 POP JUMP JUMPDEST PUSH1 0x0 DUP2 SWAP1 POP SWAP2 SWAP1 POP JUMP JUMPDEST DUP3 DUP2 DUP4 CALLDATACOPY PUSH1 0x0 DUP4 DUP4 ADD MSTORE POP POP POP JUMP JUMPDEST PUSH1 0x0 PUSH1 0x2 DUP3 DIV SWAP1 POP PUSH1 0x1 DUP3 AND DUP1 PUSH2 0x45F JUMPI PUSH1 0x7F DUP3 AND SWAP2 POP JUMPDEST PUSH1 0x20 DUP3 LT DUP2 EQ ISZERO PUSH2 0x473 JUMPI PUSH2 0x472 PUSH2 0x522 JUMP JUMPDEST JUMPDEST POP SWAP2 SWAP1 POP JUMP JUMPDEST PUSH2 0x482 DUP3 PUSH2 0x594 JUMP JUMPDEST DUP2 ADD DUP2 DUP2 LT PUSH8 0xFFFFFFFFFFFFFFFF DUP3 GT OR ISZERO PUSH2 0x4A1 JUMPI PUSH2 0x4A0 PUSH2 0x551 JUMP JUMPDEST JUMPDEST DUP1 PUSH1 0x40 MSTORE POP POP POP JUMP JUMPDEST PUSH1 0x0 PUSH2 0x4B5 DUP3 PUSH2 0x42E JUMP JUMPDEST SWAP2 POP PUSH32 0xFFFFFFFFFFFFFFFFFFFFFFFFFFFFFFFFFFFFFFFFFFFFFFFFFFFFFFFFFFFFFFFF DUP3 EQ ISZERO PUSH2 0x4E8 JUMPI PUSH2 0x4E7 PUSH2 0x4F3 JUMP JUMPDEST JUMPDEST PUSH1 0x1 DUP3 ADD SWAP1 POP SWAP2 SWAP1 POP JUMP JUMPDEST PUSH32 0x4E487B7100000000000000000000000000000000000000000000000000000000 PUSH1 0x0 MSTORE PUSH1 0x11 PUSH1 0x4 MSTORE PUSH1 0x24 PUSH1 0x0 REVERT JUMPDEST PUSH32 0x4E487B7100000000000000000000000000000000000000000000000000000000 PUSH1 0x0 MSTORE PUSH1 0x22 PUSH1 0x4 MSTORE PUSH1 0x24 PUSH1 0x0 REVERT JUMPDEST PUSH32 0x4E487B7100000000000000000000000000000000000000000000000000000000 PUSH1 0x0 MSTORE PUSH1 0x41 PUSH1 0x4 MSTORE PUSH1 0x24 PUSH1 0x0 REVERT JUMPDEST PUSH1 0x0 DUP1 REVERT JUMPDEST PUSH1 0x0 DUP1 REVERT JUMPDEST PUSH1 0x0 DUP1 REVERT JUMPDEST PUSH1 0x0 DUP1 REVERT JUMPDEST PUSH1 0x0 PUSH1 0x1F NOT PUSH1 0x1F DUP4 ADD AND SWAP1 POP SWAP2 SWAP1 POP JUMP JUMPDEST PUSH2 0x5AE DUP2 PUSH2 0x42E JUMP JUMPDEST DUP2 EQ PUSH2 0x5B9 JUMPI PUSH1 0x0 DUP1 REVERT JUMPDEST POP JUMP INVALID LOG2 PUSH5 0x6970667358 0x22 SLT KECCAK256 0xD0 LOG1 ORIGIN 0x4F PUSH11 0x9FF2891ED3A8E7163FC613 REVERT BALANCE LOG0 0xF9 CALL 0xFC 0xD3 PUSH15 0x5F184F7175FD040764736F6C634300 ADDMOD SMOD STOP CALLER "
				},
				"gasEstimates": {
					"creation": {
						"codeDepositCost": "304400",
						"executionCost": "29615",
						"totalCost": "334015"
					},
					"external": {
						"addStudentDetails(string,string)": "infinite",
						"addStudentScore(uint256,uint256,uint256,uint256)": "infinite",
						"classTeacher()": "2536"
					}
				},
				"methodIdentifiers": {
					"addStudentDetails(string,string)": "a24232c5",
					"addStudentScore(uint256,uint256,uint256,uint256)": "3c81bde7",
					"classTeacher()": "be645d0a"
				}
			},
			"storageLayout": {
				"storage": [
					{
						"astId": 4,
						"contract": "contracts/ScoreCard.sol:ScoreCard",
						"label": "studentCount",
						"offset": 0,
						"slot": "0",
						"type": "t_uint256"
					},
					{
						"astId": 6,
						"contract": "contracts/ScoreCard.sol:ScoreCard",
						"label": "classTeacher",
						"offset": 0,
						"slot": "1",
						"type": "t_address"
					},
					{
						"astId": 36,
						"contract": "contracts/ScoreCard.sol:ScoreCard",
						"label": "students",
						"offset": 0,
						"slot": "2",
						"type": "t_mapping(t_uint256,t_struct(StudentDetails)22_storage)"
					},
					{
						"astId": 41,
						"contract": "contracts/ScoreCard.sol:ScoreCard",
						"label": "scores",
						"offset": 0,
						"slot": "3",
						"type": "t_mapping(t_uint256,t_struct(Score)31_storage)"
					}
				],
				"types": {
					"t_address": {
						"encoding": "inplace",
						"label": "address",
						"numberOfBytes": "20"
					},
					"t_mapping(t_uint256,t_struct(Score)31_storage)": {
						"encoding": "mapping",
						"key": "t_uint256",
						"label": "mapping(uint256 => struct ScoreCard.Score)",
						"numberOfBytes": "32",
						"value": "t_struct(Score)31_storage"
					},
					"t_mapping(t_uint256,t_struct(StudentDetails)22_storage)": {
						"encoding": "mapping",
						"key": "t_uint256",
						"label": "mapping(uint256 => struct ScoreCard.StudentDetails)",
						"numberOfBytes": "32",
						"value": "t_struct(StudentDetails)22_storage"
					},
					"t_string_storage": {
						"encoding": "bytes",
						"label": "string",
						"numberOfBytes": "32"
					},
					"t_struct(Score)31_storage": {
						"encoding": "inplace",
						"label": "struct ScoreCard.Score",
						"members": [
							{
								"astId": 24,
								"contract": "contracts/ScoreCard.sol:ScoreCard",
								"label": "studentId",
								"offset": 0,
								"slot": "0",
								"type": "t_uint256"
							},
							{
								"astId": 26,
								"contract": "contracts/ScoreCard.sol:ScoreCard",
								"label": "englishMarks",
								"offset": 0,
								"slot": "1",
								"type": "t_uint256"
							},
							{
								"astId": 28,
								"contract": "contracts/ScoreCard.sol:ScoreCard",
								"label": "mathsMarks",
								"offset": 0,
								"slot": "2",
								"type": "t_uint256"
							},
							{
								"astId": 30,
								"contract": "contracts/ScoreCard.sol:ScoreCard",
								"label": "scienceMarks",
								"offset": 0,
								"slot": "3",
								"type": "t_uint256"
							}
						],
						"numberOfBytes": "128"
					},
					"t_struct(StudentDetails)22_storage": {
						"encoding": "inplace",
						"label": "struct ScoreCard.StudentDetails",
						"members": [
							{
								"astId": 17,
								"contract": "contracts/ScoreCard.sol:ScoreCard",
								"label": "studentFirstName",
								"offset": 0,
								"slot": "0",
								"type": "t_string_storage"
							},
							{
								"astId": 19,
								"contract": "contracts/ScoreCard.sol:ScoreCard",
								"label": "studentLastName",
								"offset": 0,
								"slot": "1",
								"type": "t_string_storage"
							},
							{
								"astId": 21,
								"contract": "contracts/ScoreCard.sol:ScoreCard",
								"label": "id",
								"offset": 0,
								"slot": "2",
								"type": "t_uint256"
							}
						],
						"numberOfBytes": "96"
					},
					"t_uint256": {
						"encoding": "inplace",
						"label": "uint256",
						"numberOfBytes": "32"
					}
				}
			},
			"userdoc": {
				"kind": "user",
				"methods": {},
				"version": 1
			}
		}
	}
}